:100000000A128A11EF2F00308A000408840A82073E
:100010000034533465346C3461346D3420344434EA
:0C00200065346E3465346D346534003492
:100D340001300A128A114A27080000340A34153493
:100D440011340A340434003400347E088A007F08E5
:100D54008200A7260A128A118000840A04087D06EC
:100D640003190034FF0A0319FE0AAB2E0730831659
:100D740003139F000A128A11A2270A128A110A1267
:100D84008A119A260A128A11F801F80A0130FC0025
:100D94007C08F90001300A128A11D3260A128A113A
:100DA400D22EFB007808FA007A08F4007B080A12B5
:100DB4008A1120270A128A11790884000A128A11DA
:100DC40003200A128A110A128A1176270A128A113A
:100DD4000130FA007A08F907790884000A128A11A6
:100DE40003200A128A11003803190800DE2E831228
:100DF400031305108514831603130808F0388800BC
:100E04000000831203130515000083120313051158
:100E140008088039F0007008F10000008312031301
:100E240005150000831203130511F108031D022F99
:100E34008316031308080F3988000800F600312FC1
:100E440074087F3E2D2F7408BF3E2D2F7408933EE7
:100E54002D2F7408D33EF5007508F7003F2F760850
:100E6400013A0319222F033A0319252F013A0319D2
:100E7400282F073A03192B2F3F2F77080A128A11BC
:100E84004A270A128A112130F500F50B472F080072
:100E9400F3000A128A11F9260A128A118312031323
:100EA40005108510F0307305F20008080F3972043C
:100EB4008800051500008312031305110000730850
:100EC400F20004300310F20DFF3E031D642F831261
:100ED400031308080F3972048800051500008312F3
:100EE4000313051100000800F3000A128A11F92601
:100EF4000A128A118312031305148510F030730546
:100F0400F20008080F3972048800051500008312E6
:100F14000313051100007308F20004300310F20DEE
:100F2400FF3E031D902F8312031308080F39720428
:100F34008800051500008312031305110000080042
:100F44008316031308080F3988001430F50079302C
:100F5400F400F40BAB2FF50BAB2FB02F8316031358
:100F64000511051085108312031385100510051152
:100F740008080F3920388800051500008312031370
:100F840005110730F5007D30F400F40BC72FF50B85
:100F9400C72F28300A128A114A270A128A110D30E3
:100FA400F400F40BD32F0C300A128A114A270A12C8
:100FB4008A110D30F400F40BDD2F06300A128A1169
:100FC4004A270A128A110330F5009730F400F40B13
:100FD400E92FF50BE92FEE2F0800FD0183132830CC
:100FE400FD000630FE009F30FF00203084000A120E
:0C0FF4008A11AB2683010A128A11B82E64
:02400E0031FF80
:00000001FF
