:100000000A128A11EF2F00308A000408840A82073E
:100010000034533465346C3461346D3420344434EA
:0C00200065346E3465346D346534003492
:100D58002130F000F00BAE2E080001300A128A1183
:100D68006D27080000340A34153411340A34043469
:100D7800003400347E088A007F088200BE260A12EA
:100D88008A118000840A04087D0603190034FF0ACA
:100D98000319FE0AC22E0730831603139F000A1296
:100DA8008A11A6270A128A110A128A11B1260A1272
:100DB8008A11F801F80A0130FC007C08F9000130BA
:100DC8000A128A11EA260A128A11E92EFB0078080B
:100DD800FA007A08F4007B080A128A1110270A120E
:100DE8008A11790884000A128A1103200A128A11CA
:100DF8000A128A113A270A128A110130FA007A086F
:100E0800F907790884000A128A1103200A128A1144
:100E1800003803190800F52EF600212F74087F3ECC
:100E28001D2F7408BF3E1D2F7408933E1D2F740894
:100E3800D33EF5007508F7002F2F7608013A0319FD
:100E4800122F033A0319152F013A0319182F073ADD
:100E580003191B2F2F2F77080A128A116D270A12E0
:100E68008A112130F500F50B372F0800F2000A121D
:100E78008A11AC260A128A11831203130514720808
:100E8800F10004300310F10CFF3E031D462F080843
:100E9800F039710488000515000083120313051149
:100EA8004230F100F10B562F00000F307205F100AF
:100EB800831203130808F03971048800051500002F
:100EC8008312031305114230F100F10B692F000062
:100ED8000800F3000A128A11AC260A128A1183123A
:100EE800031305107308F10004300310F10CFF3EE2
:100EF800031D792F0808F0397104880005150000D2
:100F08008312031305110730F2007D30F100F10B55
:100F18008B2FF20B8B2F0F307305F1008312031305
:100F28000808F039710488000515000083120313BE
:100F380005110730F2007D30F100F10BA12FF20B03
:100F4800A12F0800831603130808F039880005113B
:100F580005101A30F500F830F400F40BB12FF50B3A
:100F6800B12F000083120313051005110808F0398A
:100F78000238880005150000831203130511073095
:100F8800F5007D30F400F40BC72FF50BC72F283080
:100F98000A128A116D270A128A110D30F400F40B17
:100FA800D32F0C300A128A116D270A128A110D30BC
:100FB800F400F40BDD2F06300A128A116D270A128D
:100FC8008A110330F5009730F400F40BE92FF50B84
:100FD800E92FEE2F0800FD0183132830FD000630AD
:100FE800FE00B630FF00203084000A128A11C226A3
:080FF80083010A128A11CF2EB9
:02400E0031FF80
:00000001FF
