:100000000A128A11EF2F00308A000408840A82073E
:1000100000342034503469346334503472346F34D3
:100020006A346534203400345034693463345034D5
:1000300072346F346A34653400344D34653472344C
:0A0040006834613462346134003426
:100AD80002300A128A11922608001C300A128A1162
:100AE8009226080001300A128A119226080018304E
:100AF8000A128A119226080000340A341534113477
:100B08000A340434003400347E088A007F088200E6
:100B180088250A128A118000840A04087D060319B0
:100B28000034FF0A0319FE0A8C2DF50075088400AD
:100B38000A128A1103200A128A110A128A115E26E1
:100B48000A128A110130F4007408F5077508840048
:100B58000A128A1103200A128A11003803190800A0
:100B68009A2DFC007908FB007B08F5007C080A1226
:100B78008A1102260A128A117A0884000A128A1136
:100B880003200A128A110A128A115E260A128A1191
:100B98000130FB007B08FA077A0884000A128A11E0
:100BA80003200A128A11003803190800C02D831285
:100BB8000313051085148316031308080F388800DB
:100BC8000000831203130515000083120313051197
:100BD80008080839F0007008F100000083120313B8
:100BE80005150000831203130511F108031DE42DF8
:100BF800831603130808F03988000800F700132E3D
:100C080075087F3E0F2E7508BF3E0F2E7508933E60
:100C18000F2E7508D33EF6007608F800212E7708C7
:100C2800013A0319042E033A0319072E013A03194E
:100C38000A2E073A03190D2E212E78080A128A1156
:100C480092260A128A112130F600F60B292E080086
:100C5800F8007808F60002300310F60DFF3E031D79
:100C6800302E0310760D4038F7007708F900790820
:100C78000A128A1192260A128A11FA0108307A0297
:100C880003185A2E7A087507F6007608840083132D
:100C980000080A128A115E260A128A110130F6002B
:100CA8007608FA0708307A02031C462E0A128A11BF
:100CB8006C250800F3000A128A11DB250A128A1132
:100CC80083120313051485107308F200043003100F
:100CD800F20CFF3E031D6B2E0808F03972048800E1
:100CE800051500008312031305114230F200F20BC0
:100CF8007B2E00000F307305F200831203130808DF
:100D0800F0397204880005150000831203130511D9
:100D18004230F200F20B8E2E00000800F4000A1296
:100D28008A11DB250A128A11831203130510851014
:100D38007408F20004300310F20CFF3E031D9F2ECE
:100D48000808F0397204880005150000831203139F
:100D580005110730F3007D30F200F20BB12EF30BD2
:100D6800B12E0F307405F200831203130808F0390E
:100D7800720488000515000083120313051107305B
:100D8800F3007D30F200F20BC72EF30BC72E0800DC
:100D9800831603130808F03988000511051085101B
:100DA8008312031385101A30F600F830F500F50B9E
:100DB800DB2EF60BDB2E0000831203130510051142
:100DC8000808F0390238880005150000831203135B
:100DD80005110730F6007D30F500F50BF12EF60B06
:100DE800F12E28300A128A1192260A128A110D3021
:100DF800F500F50BFD2E0C300A128A1192260A1204
:100E08008A110D30F500F50B072F06300A128A11EA
:100E180092260A128A110330F6009730F500F50B76
:100E2800132FF60B132F182F080007308316031300
:100E38009F000A128A11CC260A128A110A128A11F4
:100E480076250A128A11F901F90A1530831203135B
:100E5800AC002C08FA0001300A128A11B5250A12D2
:100E68008A11053083120313AC002C08F9000C30EA
:100E7800AD002D08FA0002300A128A11B5250A12AF
:100E88008A111A3083120313AE005E30AD0086302B
:100E9800AC00AC0B4D2FAD0B4D2FAE0B4D2F000002
:100EA8000A128A1176250A128A1120308312031336
:100EB800AC002C08F50000300A128A112C260A1200
:100EC8008A11053083120313AC002C08F9000C308A
:100ED800AD002D08FA0002300A128A11B5250A124F
:100EE8008A11033083120313AC002C08F50002307A
:100EF8000A128A1102260A128A1100300A128A116D
:100F08005E260A128A111A3083120313AE005E306D
:100F1800AD008630AC00AC0B8F2FAD0B8F2FAE0B16
:100F28008F2F00000A128A1176250A128A110030C2
:100F38000A128A115E260A128A1101300A128A11CF
:100F480099250A128A1100300A128A115E260A129D
:100F58008A11FD0104307D020318CF2F023083125D
:100F68000313AE008630AD009930AC00AC0BBA2F3D
:100F7800AD0BBA2FAE0BBA2F0A128A1171250A12BD
:100F88008A11013083120313AC002C08FD070430CA
:100F98007D02031CB22FFD0104307D020318AD2F22
:100FA800023083120313AE008630AD009930AC00D6
:100FB800AC0BDC2FAD0BDC2FAE0BDC2F0A128A1129
:100FC8007B250A128A11013083120313AC002C0806
:100FD800FD07D02FEE2FAF0183132830FD00053019
:100FE800FE008030FF00203084000A128A118C2510
:080FF80083010A128A11192F6E
:02400E0031FF80
:00000001FF
